{
  "contractName": "StudentListStorage",
  "abi": [
    {
      "inputs": [
        {
          "internalType": "uint256",
          "name": "",
          "type": "uint256"
        }
      ],
      "name": "StudentList",
      "outputs": [
        {
          "internalType": "uint256",
          "name": "id",
          "type": "uint256"
        },
        {
          "internalType": "string",
          "name": "name",
          "type": "string"
        },
        {
          "internalType": "uint256",
          "name": "age",
          "type": "uint256"
        },
        {
          "internalType": "address",
          "name": "account",
          "type": "address"
        }
      ],
      "stateMutability": "view",
      "type": "function",
      "constant": true
    },
    {
      "inputs": [
        {
          "internalType": "string",
          "name": "_name",
          "type": "string"
        },
        {
          "internalType": "uint256",
          "name": "_age",
          "type": "uint256"
        }
      ],
      "name": "addList",
      "outputs": [
        {
          "internalType": "uint256",
          "name": "",
          "type": "uint256"
        }
      ],
      "stateMutability": "nonpayable",
      "type": "function"
    },
    {
      "inputs": [],
      "name": "getList",
      "outputs": [
        {
          "components": [
            {
              "internalType": "uint256",
              "name": "id",
              "type": "uint256"
            },
            {
              "internalType": "string",
              "name": "name",
              "type": "string"
            },
            {
              "internalType": "uint256",
              "name": "age",
              "type": "uint256"
            },
            {
              "internalType": "address",
              "name": "account",
              "type": "address"
            }
          ],
          "internalType": "struct StudentListStorage.Student[]",
          "name": "",
          "type": "tuple[]"
        }
      ],
      "stateMutability": "view",
      "type": "function",
      "constant": true
    }
  ],
  "bytecode": "0x608060405234801561001057600080fd5b50610c9d806100206000396000f3fe608060405234801561001057600080fd5b506004361061005e576000357c0100000000000000000000000000000000000000000000000000000000900480636b29d35f14610063578063942b765a1461009357806395bbc64e146100b1575b600080fd5b61007d600480360381019061007891906105b2565b6100e4565b60405161008a919061061d565b60405180910390f35b61009b6101df565b6040516100a8919061082c565b60405180910390f35b6100cb60048036038101906100c6919061084e565b61033a565b6040516100db94939291906108d4565b60405180910390f35b600080600080549050905060006040518060800160405280600184610109919061094f565b81526020018681526020018581526020013373ffffffffffffffffffffffffffffffffffffffff16815250908060018154018082558091505060019003906000526020600020906004020160009091909190915060008201518160000155602082015181600101908161017c9190610b95565b506040820151816002015560608201518160030160006101000a81548173ffffffffffffffffffffffffffffffffffffffff021916908373ffffffffffffffffffffffffffffffffffffffff160217905550505060008054905091505092915050565b60606000805480602002602001604051908101604052809291908181526020016000905b82821015610331578382906000526020600020906004020160405180608001604052908160008201548152602001600182018054610240906109b2565b80601f016020809104026020016040519081016040528092919081815260200182805461026c906109b2565b80156102b95780601f1061028e576101008083540402835291602001916102b9565b820191906000526020600020905b81548152906001019060200180831161029c57829003601f168201915b50505050508152602001600282015481526020016003820160009054906101000a900473ffffffffffffffffffffffffffffffffffffffff1673ffffffffffffffffffffffffffffffffffffffff1673ffffffffffffffffffffffffffffffffffffffff168152505081526020019060010190610203565b50505050905090565b6000818154811061034a57600080fd5b9060005260206000209060040201600091509050806000015490806001018054610373906109b2565b80601f016020809104026020016040519081016040528092919081815260200182805461039f906109b2565b80156103ec5780601f106103c1576101008083540402835291602001916103ec565b820191906000526020600020905b8154815290600101906020018083116103cf57829003601f168201915b5050505050908060020154908060030160009054906101000a900473ffffffffffffffffffffffffffffffffffffffff16905084565b6000604051905090565b600080fd5b600080fd5b600080fd5b600080fd5b6000601f19601f8301169050919050565b7f4e487b7100000000000000000000000000000000000000000000000000000000600052604160045260246000fd5b61048982610440565b810181811067ffffffffffffffff821117156104a8576104a7610451565b5b80604052505050565b60006104bb610422565b90506104c78282610480565b919050565b600067ffffffffffffffff8211156104e7576104e6610451565b5b6104f082610440565b9050602081019050919050565b82818337600083830152505050565b600061051f61051a846104cc565b6104b1565b90508281526020810184848401111561053b5761053a61043b565b5b6105468482856104fd565b509392505050565b600082601f83011261056357610562610436565b5b813561057384826020860161050c565b91505092915050565b6000819050919050565b61058f8161057c565b811461059a57600080fd5b50565b6000813590506105ac81610586565b92915050565b600080604083850312156105c9576105c861042c565b5b600083013567ffffffffffffffff8111156105e7576105e6610431565b5b6105f38582860161054e565b92505060206106048582860161059d565b9150509250929050565b6106178161057c565b82525050565b6000602082019050610632600083018461060e565b92915050565b600081519050919050565b600082825260208201905092915050565b6000819050602082019050919050565b61066d8161057c565b82525050565b600081519050919050565b600082825260208201905092915050565b60005b838110156106ad578082015181840152602081019050610692565b60008484015250505050565b60006106c482610673565b6106ce818561067e565b93506106de81856020860161068f565b6106e781610440565b840191505092915050565b600073ffffffffffffffffffffffffffffffffffffffff82169050919050565b600061071d826106f2565b9050919050565b61072d81610712565b82525050565b600060808301600083015161074b6000860182610664565b506020830151848203602086015261076382826106b9565b91505060408301516107786040860182610664565b50606083015161078b6060860182610724565b508091505092915050565b60006107a28383610733565b905092915050565b6000602082019050919050565b60006107c282610638565b6107cc8185610643565b9350836020820285016107de85610654565b8060005b8581101561081a57848403895281516107fb8582610796565b9450610806836107aa565b925060208a019950506001810190506107e2565b50829750879550505050505092915050565b6000602082019050818103600083015261084681846107b7565b905092915050565b6000602082840312156108645761086361042c565b5b60006108728482850161059d565b91505092915050565b600082825260208201905092915050565b600061089782610673565b6108a1818561087b565b93506108b181856020860161068f565b6108ba81610440565b840191505092915050565b6108ce81610712565b82525050565b60006080820190506108e9600083018761060e565b81810360208301526108fb818661088c565b905061090a604083018561060e565b61091760608301846108c5565b95945050505050565b7f4e487b7100000000000000000000000000000000000000000000000000000000600052601160045260246000fd5b600061095a8261057c565b91506109658361057c565b925082820190508082111561097d5761097c610920565b5b92915050565b7f4e487b7100000000000000000000000000000000000000000000000000000000600052602260045260246000fd5b600060028204905060018216806109ca57607f821691505b6020821081036109dd576109dc610983565b5b50919050565b60008190508160005260206000209050919050565b60006020601f8301049050919050565b60008160020a8302905092915050565b600060088302610a487fffffffffffffffffffffffffffffffffffffffffffffffffffffffffffffffff82610a08565b610a528683610a08565b95508019841693508086168417925050509392505050565b6000819050919050565b6000610a8f610a8a610a858461057c565b610a6a565b61057c565b9050919050565b6000819050919050565b610aa983610a74565b610abd610ab582610a96565b848454610a18565b825550505050565b600090565b610ad2610ac5565b610add818484610aa0565b505050565b5b81811015610b0157610af6600082610aca565b600181019050610ae3565b5050565b601f821115610b4657610b17816109e3565b610b20846109f8565b81016020851015610b2f578190505b610b43610b3b856109f8565b830182610ae2565b50505b505050565b60008160020a8304905092915050565b6000610b6c60001984600802610b4b565b1980831691505092915050565b6000610b858383610b5b565b9150826002028217905092915050565b610b9e82610673565b67ffffffffffffffff811115610bb757610bb6610451565b5b610bc182546109b2565b610bcc828285610b05565b600060209050601f831160018114610bff5760008415610bed578287015190505b610bf78582610b79565b865550610c5f565b601f198416610c0d866109e3565b60005b82811015610c3557848901518255600182019150602085019450602081019050610c10565b86831015610c525784890151610c4e601f891682610b5b565b8355505b6001600288020188555050505b50505050505056fea2646970667358221220e04a5f64a88ee08dd831c643a2bcfafce96a2425bbcbf35bb923625478f7fb0764736f6c63430008150033",
  "immutableReferences": {},
  "source": "// SPDX-License-Identifier: GPL-3.0\n\npragma solidity >=0.4.16 <0.9.0;\n\ncontract StudentListStorage {\n  \n  struct Student {\n    uint id;\n    string name;\n    uint age;\n    address account;\n  }\n\n  Student[] public StudentList;\n\n  function addList(string memory _name, uint _age) public returns (uint) {\n    uint count = StudentList.length;\n    StudentList.push(Student(count + 1, _name, _age, msg.sender));\n    return StudentList.length;\n  }\n\n  function getList() public view returns (Student[] memory) {\n    return StudentList;\n  }\n}",
  "sourcePath": "/Users/chriswang/Desktop/me/leetcode-js/web3/truffle/contracts/StudentListStorage.sol",
  "compiler": {
    "name": "solc",
    "version": "0.8.21+commit.d9974bed.Emscripten.clang"
  },
  "schemaVersion": "3.4.16",
  "updatedAt": "2024-01-02T09:21:59.205Z",
  "networkType": "ethereum",
  "devdoc": {
    "kind": "dev",
    "methods": {},
    "version": 1
  },
  "userdoc": {
    "kind": "user",
    "methods": {},
    "version": 1
  }
}